:1000000011C02BC02AC029C028C027C026C025C0C7
:1000100024C023C0C5C021C0B8C11FC01EC02573E5
:100020002F25730011241FBECFE5D2E0DEBFCDBF68
:1000300010E0A0E6B0E0ECEDF8E102C005900D9212
:10004000AA36B107D9F711E0AAE6B0E001C01D92C7
:10005000A43CB107E1F78AD93FCCD2CFA89501974C
:1000600028F0E0EAFFE03197F1F7F8CF089572E069
:100070007A95F1F70197D9F7A895089588E08DB999
:10008000C19AC39A0895C3980895C39A089584E0C5
:1000900086BB86BB86BB86BB86BB86BB86BB86BB58
:1000A00086BB86BB86BB86BB86BB86BB86BB86BB48
:1000B00000008FB1089594E068B378E087FB61F9A0
:1000C00068BB880F96BB96BB7A95C1F7C19A089515
:1000D000DC01FB0122E032E02E1B3F0B241B350B21
:1000E00084E0319788F086BB86BB86BB86BB86BB27
:1000F00086BB86BB86BB86BB86BB86BB86BB86BBF8
:1001000086BB86BB86BBEDCF109731F0C0DF8D93E9
:1001100041505040D9F72FC08C9956958C994795EE
:10012000899956958999479560916E00A8E8B0E045
:10013000A60FB11D809198018C3FE0F78C99A7DF45
:10014000A6DF8C998058E82F899B07C08C999FDF88
:100150009EDF8C998058E80FE795ED93F894809195
:10016000980183958093980178946395415050400D
:10017000E9F660936E0084E086BB86BB86BB86BBD7
:1001800086BB86BB86BB86BB86BB86BB86BB86BB67
:1001900086BB86BB86BB86BB2150304069F708957D
:1001A0008F938FB78F93EF93FF93E0916F00FF27AB
:1001B000E857FF4F80919801815038F08093980163
:1001C00081918BBDE858E0936F00FF91EF918F9183
:1001D0008FBF8F9118958A3019F48DE001D08AE095
:1001E000FF93EF93E0916A00F0916B00309709F074
:1001F0000995EF91FF910895FC018591803011F0F0
:10020000EADFFBCF0895FF27E0E230E247FF0CC0B2
:10021000419597FF09C0EDE26095709580959095A6
:10022000611D711D811D911D27FF02C0219530E3C5
:1002300050E2AA27660F771F881F991FAA1FA417CD
:1002400010F0A41B63955A95A9F7AA3008F0A95F8E
:10025000A05DAF93F395611571058105910541F797
:10026000ED3211F4EF93F395F21718F43F93F395F1
:10027000FBCF8F91B0DFFA95E1F70895E991F991FD
:100280008591803021F0853219F0A5DFF9CF0895EE
:1002900020E0E89455915532C1F3503311F468943D
:1002A00055915A3348F4505390F3220F022E220FE7
:1002B000220F200D250FF4CF0EF4219589919991ED
:1002C000533619F3533729F1533559F1BC018827B7
:1002D0009927E8945C3621F4899199916894559115
:1002E000543639F446EF7EF077FF0DC08FEF9FEF65
:1002F0000AC055374AE039F0583540E121F052360E
:1003000042E009F00895FF93EF937DDFEF91FF91B5
:10031000B7CFFF93EF93FC0181918030B9F35BDF9E
:10032000FBCFFF93EF9368DFF1CFDF93CF93CDB790
:10033000DEB72596A3DFCF91DF910895F701819372
:100340007F010895DF93CF93CDB7DEB72596E09177
:100350006A00F0916B00EF93FF93EEE9F1E0E09318
:100360006A00F0936B00FF92EF92E990F99086DFBC
:10037000F7011082EF90FF90FF91EF91E0936A00F8
:10038000F0936B00CF91DF91089518958F929F9213
:10039000AF92BF92CF92DF92EF92FF92CF93DF9313
:1003A000C0916C00D0916D00625071098109910972
:1003B000CE80DF80E884F98422E0C21AD108E10807
:1003C000F1086C157D058E059F0590F42A8130E0BB
:1003D00040E050E0E7D949015A018A899B89AC89FC
:1003E000BD89BC01CD01680D791D8A1D9B1D03C00F
:1003F00060E070E0CB01DF91CF91FF90EF90DF9054
:10040000CF90BF90AF909F908F9008950F931F93C0
:10041000CF93DF93DC01E0916C00F0916D001196B9
:100420001C921E9214966D917D918D919C911797BF
:10043000613071058105910561F106811781208583
:100440003185601771078207930718F561157105EB
:100450008105910539F42081233021F46685778563
:1004600080899189ED01688779878A879B876115E3
:1004700071058105910511F089DF04C066857785D6
:10048000808991896C877D878E879F8780E090E047
:1004900002C081E090E0DF91CF911F910F9108950C
:1004A0004F925F926F927F92AF92BF92CF92DF9204
:1004B000EF92FF920F931F93CF93DF9300D000D062
:1004C000CDB7DEB76B017C01A0906C00B0906D00E1
:1004D00082E0C816D104E104F10408F4A3C0F501D8
:1004E00086819781A085B185C816D906EA06FB06E4
:1004F00008F098C08081823009F453C0833009F439
:100500006BC0813009F08EC02601569447944C0C84
:100510005D1C92013170452C55244694612C712C40
:10052000F5014285538564857585440D551D661D0D
:10053000771D2F3FF1E03F0729F002E010E0CE01E8
:1005400001961BC001E010E02FEF31E0CE010196D3
:10055000DDD6892B09F066C0F50142855385648597
:1005600075854F5F5F4F6F4F7F4F440D551D661D63
:10057000771D20E030E0CE010296C8D6892B09F025
:1005800051C089819A81C0FE07C0BC01E4E0769524
:100590006795EA95E1F702C0BC017F7080E090E0CA
:1005A00045C096013327220F331F77276F2D5E2D0D
:1005B0004D2DF50182859385A485B585480F591F7A
:1005C0006A1F7B1F02E010E0CE0101969FD6892BA7
:1005D00049F569817A81E2CF96012F773327220F7F
:1005E000331F220F331F97E0F694E794D794C794F4
:1005F0009A95D1F7F50142855385648575854C0D33
:100600005D1D6E1D7F1D04E010E0CE0101967ED6BB
:10061000892B41F489819A81AB81BC81BC01CD01D8
:100620009F7004C061E070E080E090E00F900F9058
:100630000F900F90DF91CF911F910F91FF90EF904E
:10064000DF90CF90BF90AF907F906F905F904F9072
:100650000895A0E0B0E0EEE2F3E0C9C8EC01E0905C
:100660006C00F0906D00088119810F5F1F4F19F425
:1006700083E090E057C04C855D856E857F85411590
:10068000510561057105A1F3C8018F709927892B68
:1006900009F041C04F5F5F4F6F4F7F4F4C875D87C1
:1006A0006E877F87688579858A859B85F7016115C7
:1006B00071058105910531F4848195810817190729
:1006C000B8F629C0228130E0A901415051099801B2
:1006D000E4E036952795EA95E1F724233523232B8B
:1006E000D1F4DEDE6230710581059105C8F0F701B5
:1006F000C680D780E084F1846C157D058E059F054A
:1007000008F0B6CF688779878A879B873FDE6C873A
:100710007D878E879F871983088380E090E002C0E1
:1007200081E090E0CDB7DEB7E8E07DC8A0E0B0E0C2
:10073000EBE9F3E05CC8EC016A017B0102E010E048
:100740002EEF31E0E3D5892B21F58881998185351C
:100750009A4A09F526E330E0B701A601CE01D6D5C5
:10076000892B39F4888199818634914411F480E091
:1007700015C002E010E022E530E0B701A601CE018D
:10078000C5D5892B51F4888199818634914429F407
:10079000EECF83E003C082E001C081E0CDB7DEB7D9
:1007A000E8E041C8A0E0B0E0E7EDF3E01DC8EC01EF
:1007B0006B01242F952FDA018D91AD018032C9F3A1
:1007C000E22EF92E8F3219F4BFEFEB1AFB0A1C82CE
:1007D0001D821E821F82F7018081813238F050E233
:1007E000952E5601FBE0AF0EB11C5EC0CE010EDEB1
:1007F000D6011C92C9C090E010E048E051E0510FD2
:100800009701210F311DD9018C91813208F057C019
:10081000E50EF11C91E0813208F090E09387CE0163
:10082000F5DD009709F096C0288139812F703327B4
:1008300045E0220F331F4A95E1F74C855D856E85B3
:100840007F8500E210E0C60161D5892B09F08DC0DB
:10085000F6018081882309F480C0438543FD77C079
:100860006A817B819B01EA15FB0509F062C0FB01EF
:10087000838581117DC044FF7EC0D60154968D9141
:100880009C915597A0E0B0E0DC0199278827F601FC
:10089000428D538D60E070E0842B952BA62BB72BF7
:1008A0008C839D83AE83BF83EA81FB81DF01CF010F
:1008B0000B96A817B90709F49ECF9D92FACF8F32F5
:1008C00009F4A6CF8E3209F459C0941708F0A0CFCE
:1008D000292F30E001E0090F6FE7680F6F3120F03A
:1008E00060E2680F6D31D0F4642F70E061507109DF
:1008F000261737079CF4B701650F711DDB015C916A
:100900002E0F3F1FD9018C939E5F9F01200F311D39
:10091000D9015C9352E0510F152F70CF9FE9980FCA
:100920009A3108F480522E0F3F1FD9018C93902FDB
:10093000F3CF8191D9015D919D01992787FD909514
:10094000851B910957FD9395892B09F48CCFCE0116
:1009500080DE67CF83309105B9F4EA81FB8183851E
:10096000882349F083E090E00FC081E090E00CC064
:1009700080E090E009C084E090E006C0483009F0D3
:1009800047CF98E04BE0C8CFCDB7DEB7EBE048C724
:10099000A4E2B0E0EDECF4E020C710926D001092FC
:1009A0006C00009709F4CCC01C0122D480FDCBC0A0
:1009B00040E050E0BA01CE010196B8DE8130F9F492
:1009C00000E110E02EEB31E040E050E0BA01CE0152
:1009D00001969CD4892B19F081E090E0B6C08D81FE
:1009E000811103C087E090E0B0C049845A846B84D1
:1009F0007C84B301A201CE01019698DE03C0412C94
:100A0000512C3201833041F38111ECCF04E210E02C
:100A10002DE030E0B301A201CE01019677D4892BFD
:100A2000D9F66A857B8580E090E0611571058105C6
:100A3000910521F4688D798D8A8D9B8D2C8130E014
:100A400040E050E0AFD649015A010A811B8120E005
:100A500030E073016201C00ED11EE21EF31EF101EF
:100A6000C286D386E486F586498142834D805E80C6
:100A7000558244828F819885A0E0B0E00097A1055F
:100A8000B10521F48C899D89AE89BF8954E05694C3
:100A900047945A95E1F7612C712C801B910BA20BA6
:100AA000B30B88199909AA09BB09BC01CD016419C6
:100AB000750986099709242F30E040E050E04ED6B2
:100AC000DA01C9010296A11DB11DF1018683978348
:100AD000A087B187873FFFE09F07A105B10538F0E8
:100AE000873F9F4FA105B10520F083E003C081E05F
:100AF00001C082E0F1018083833029F488A199A1AB
:100B0000AAA1BBA107C0D501C4018C0D9D1DAE1DBE
:100B1000BF1DF10186879787A08BB18B4C0C5D1CA4
:100B20006E1C7F1C840C951CA61CB71CF101828ACC
:100B3000938AA48AB58A118230926D0020926C004B
:100B400080E090E002C082E090E0A496E2E161C61D
:100B5000ACE3B0E0EDEAF5E04EC600916C00109118
:100B60006D0001151105C1F1AC01F8011182CE0132
:100B7000C1969CA38BA3BE016F5F7F4F409712DE8F
:100B8000009771F58981882349F18C8584FD26C001
:100B90008D899E89A0E0B0E0DC01992788274B8DE4
:100BA0005C8D60E070E0842B952BA62BB72BF801B1
:100BB000868F978FA0A3B1A38D8D9E8DAF8DB8A189
:100BC000828F938FA48FB58F168A178A108E118EFD
:100BD00081E0818380E003C086E001C083E090E093
:100BE000EC96E4E024C6A0E0B0E0E8EFF5E0F7C55D
:100BF0004C016B015A01C0916C00D0916D00FA015B
:100C000011821082209709F4A0C0898180FFA0C0C2
:100C10008A8D9B8DAC8DBD8D4E895F89688D798D58
:100C2000841B950BA60BB70BA60160E070E0841740
:100C30009507A607B70708F46C013401412C32E090
:100C4000532EC114D10409F479C08E899F89A88DCF
:100C5000B98DAC01BD01517066277727452B462B16
:100C6000472BD1F5FA80FA94AC01BD0129E07695C5
:100C70006795579547952A95D1F7F422C1F4892BAA
:100C80008A2B8B2B29F46E8D7F8D88A199A105C0AD
:100C90006AA17BA18CA19DA103DC62307105810555
:100CA000910508F44EC06AA37BA38CA39DA36AA1FF
:100CB0007BA18CA19DA16ADB611571058105910560
:100CC00009F43FC0DC01CB018F0D911DA11DB11DA9
:100CD0008EA39FA3A8A7B9A72E893F893170C2010F
:100CE000821B930B76018C159D0508F47C014EA1A7
:100CF0005FA168A579A58114910411F0C30102C018
:100D000080E090E0870102D3892BD9F48E899F89F6
:100D1000A88DB98D8E0D9F1DA11DB11D8E8B9F8B32
:100D2000A88FB98F6E0C7F1CCE18DF08F50180816B
:100D30009181E80EF91EF182E08283CF80E090E09D
:100D400009C0198281E090E005C086E090E002C011
:100D500085E090E0CDB7DEB7E0E15DC5A4E0B0E0AE
:100D6000E3EBF6E03CC5362F272F00916C00109185
:100D70006D000115110509F4E3C0D80111964C91DD
:100D8000119740FFE0C05A964D915D916D917C9115
:100D90005D97C32ED22E7C014C155D056E057F0537
:100DA00010F46A017B01F80146885788608C718CC9
:100DB000168A178A108E118EC114D104E104F10431
:100DC00009F4C4C08280912CA12CB12C39E0880C8C
:100DD000991CAA1CBB1C3A95D1F74114510461041B
:100DE0007104E9F1B1E04B1A510861087108C701BB
:100DF000B6016150710981099109A5019401AED430
:100E000029833A834B835C83C301B201A50194011A
:100E1000A5D489819A81AB81BC8182179307A407ED
:100E2000B507E8F088279927DC0188199909AA09EC
:100E3000BB09482259226A227B22D80156964D923C
:100E40005D926D927C925997C418D508E608F70810
:100E500092966D917D918D919C91959730C0F801FE
:100E6000668D778D80A191A162A373A384A395A3BE
:100E700026C016DB623071058105910508F45AC061
:100E8000F801468057806084718464157505860575
:100E9000970508F04FC062A373A384A395A3468867
:100EA0005788608C718C480C591C6A1C7B1C468AC4
:100EB000578A608E718EC818D908EA08FB088C140E
:100EC0009D04AE04BF04A8F2D80156968D909D9063
:100ED000AD90BC905997C80CD91CEA1CFB1CF801BA
:100EE000C68AD78AE08EF18E51DA611571058105C7
:100EF000910501F129E0F694E794D794C7942A95D7
:100F0000D1F7D80112962C9130E0215031094901D6
:100F1000AA2497FCA094BA2CC820D920EA20FB2050
:100F2000C60ED71EE81EF91EF801C6A2D7A2E0A67B
:100F3000F1A60CC0D80111961C9281E090E008C087
:100F400086E090E005C085E090E002C080E090E09F
:100F50002496E0E160C4ACE2B0E0E0EBF7E04BC423
:100F600020916C0030916D00232B89F1AB018C0135
:100F7000CE018196F80193838283BE016F5F7F4F1C
:100F8000C80110DC0097F9F489818823D1F08C85A1
:100F900084FD03C084E090E01CC08D899E89A0E0A0
:100FA000B0E0DC01992788274B8D5C8D60E070E014
:100FB000842B952BA62BB72BF80184839583A683CE
:100FC000B783C80123DA8330910519F4E3CF86E0B3
:100FD00090E0AC96E4E02BC4ACE2B0E0E1EFF7E0E7
:100FE00006C420916C0030916D00232B09F4B7C02A
:100FF0006B017C01CE018196D70113969C938E9351
:1010000012976115710519F4C70100DAB8C023E021
:1010100030E0D7011C964D915D916D917C911F97A9
:10102000411551056105710519F1F70120813181E3
:101030002F70332785E0220F331F8A95E1F700E2F6
:1010400010E0CE01019662D1892B09F08BC0898115
:10105000882309F48AC09C85853E21F08E3211F0E8
:1010600093FF13C0C701F5DA9C01009791F27FC08E
:10107000C9012115310549F0F70114861586168638
:1010800017862330310509F074C08601075F1F4FB2
:10109000D7011C964D915D916D917C911F97452BC9
:1010A000462B472B09F44AC09E012F5F3F4FF601A4
:1010B0007196D9018D919D01803271F0853009F4CE
:1010C00085EE0F5F1F4FA80141505109DA018C9343
:1010D0000E171F0771F701C0F8018985803299F05A
:1010E0009EE290839F012E5F3F4F81838A858032ED
:1010F00031F02F5F3F4F82838B85803211F4F901ED
:1011000002C0838334968C85D60118968C931897E9
:101110004D8D5E8D6F8D78A14D935D936D937C9316
:101120001397898D9A8D15969C938E9314978F891A
:10113000988D17969C938E9316978F01F8011082C5
:10114000C70187DA83309105D1F4D7011C961D922F
:101150001D921D921C921F9780E090E010C086E0C7
:1011600090E00DC021E030E002C023E030E0C90192
:1011700083CF232B21F48601075F1F4FDFCFAC966F
:10118000E8E051C3FF920F931F93CF93DF93C82FD3
:10119000D42F152F062FF72E87FF08C040E050E010
:1011A000BA0187E7EFDF8230F8F4CF776ED76FD7D9
:1011B0006AD76DD78C2F7FD78F2D7DD7802F7BD788
:1011C000812F79D78D2F77D7C03421F0C83421F4FF
:1011D00087E803C085E901C081E06DD7CAE057D731
:1011E00087FF02C0C150D9F7CDB7DEB7E5E01EC317
:1011F000A4E0B0E0EDEFF8E0FBC240D70AE010E079
:1012000046D701501109E1F73ED708E512E03FD774
:1012100001501109E1F740E050E0BA0180E4B2DF8B
:10122000813009F06EC04AEA51E060E070E088E485
:10123000A9DF813031F58E010F5F1F4F780124E067
:10124000D22ED00E24D7F70181937F01DE12FACF80
:101250008B81813009F055C08C818A3A09F051C0E8
:1012600098EAE92E91E6F92E40E050E060E070E463
:1012700089EE88DF882309F1F1E0EF1AF108A1F780
:1012800040C040E050E0BA0189EE7CDF823018F0C7
:1012900011E001E402C012E009EE88EAE82E81E6DE
:1012A000F82E40E050E0BA01802F6CDF882309F16E
:1012B000F1E0EF1AF108A9F724C040E050E0BA01CC
:1012C0008AE760DF81111DC0E2D6F80181938F01AA
:1012D000DE12FACF898186FD02C014E001C01CE055
:1012E0001093C301D2D6D3D681E0112361F080E000
:1012F0000AC040E052E060E070E080E543DF882310
:1013000079F310E0EDCF2496E7E08EC2A0E0B0E0E4
:10131000EBE8F9E06CC27C0169018091C30183FDB7
:1013200007C089E0440F551F661F771F8A95D1F7C4
:1013300081E528DF882319F0C1E0D0E010C0C0E3C8
:10134000D5E7A5D68F3F19F42197D9F7F5CF8E3F72
:1013500099F7A801B601C701BBD6C0E0D0E095D689
:1013600096D6CE01CDB7DEB7E8E05DC2A0E0B0E032
:10137000EBEBF9E038C281B714BE8EE081BD89E0A5
:1013800088BB8EE387BB78940DE41EE089E991E089
:10139000FFDA892B49F0A89513BE1ABC80B78823C1
:1013A00009F4CDC1C0E8C1C1A89560E670E088E845
:1013B00091E0D1DD8430910541F468E670E088E881
:1013C00091E0C9DDC8E6D0E00AC0C0E6D0E007C0C1
:1013D00060E070E088E891E0FFDD009759F0892B2C
:1013E000B9F3D9CF209179002223C9F380917800F5
:1013F000827149F0A89560E770E088E891E0ECDD43
:10140000009781F3ECCF64E670E089E790E04AD280
:10141000892B81F3A89589E790E09F938F93DF93C1
:10142000CF938EE190E09F938F9388E890E09F9315
:101430008F9388D788E890E08BDB2DB73EB7285F85
:101440003F4F0FB6F8943EBF0FBE2DBF892B09F05A
:1014500062C146E850E06CE070E088E890E0C3DBF1
:10146000892B09F05FC180918600909187000C97CD
:1014700009F058C18091900090919100A091920044
:10148000B091930087359144A645B54409F04AC10F
:10149000C0E080E8882E84E8982E8EE1A82EB12C3A
:1014A000A89546E850E068E070E088E890E09BDBB3
:1014B0008091860090918700089709F033C1C09011
:1014C0008C00D0908D00E0908E00F0908F00809185
:1014D000880090918900A0918A00B0918B008C3493
:1014E00069E4960763E5A60764E5B60709F4C5C095
:1014F00078F486363DE6930734E7A30730E2B30776
:10150000B9F084349944A345B04509F00BC1B5C086
:10151000843621E6920724E7A20721E6B20709F400
:101520005EC086369146A346B44709F0FBC0A5C00D
:10153000C0FE05C06FEFC61AD60AE60AF60AD70142
:10154000C6014097A109B10985359105A105B105ED
:1015500008F0E8C046E850E0B60188E890E043DBD8
:101560008091860090918700A0E0B0E08C159D05E9
:10157000AE05BF0509F0D6C080918800813009F022
:10158000D1C0C0918A008FEF8C0F823008F0CAC0A2
:10159000C1BB80919600883019F0803109F0C2C03B
:1015A00091B3982B91BB84FDCC0F20918C0030918E
:1015B0008D0040918E0050918F00DA01C901805456
:1015C0009F41A109B10981349C49A105B10508F0E9
:1015D000A9C0C501B401C2D0215029BD61CFCC231F
:1015E00009F4A0C0C11484E0D806E104F10408F4B1
:1015F00099C08C2F90E00197AA2797FDA095BA2F4C
:10160000AC01BD014C215D216E217F21452B462B74
:10161000472B09F087C04091AF015091B001609114
:10162000B1017091B20184239523A623B723892B9E
:101630008A2B8B2B09F076C01092980110926F00C4
:1016400010926E0080B7882379F18091AF0190915C
:10165000B001917060E072E0681B790B46E850E0E1
:1016600080E090E0C0DA8091860090918700C81AEF
:10167000D90AE108F108C1E041C0C0FE05C02FEF62
:10168000C21AD20AE20AF20A8091AF019091B00127
:10169000A091B101B091B201BC01CD016C0D7D1DD5
:1016A0008E1D9F1D5BDBFCCE86E087BD80E68CBD7A
:1016B00081E080BF82E08ABD83BF80E189BFC0E056
:1016C000CF5FCEBDCBBD84E690E0D1D4C038C1F7AA
:1016D000BCCF60E074E046E850E080E090E083DA60
:1016E000809186009091870081159440A1F484E058
:1016F000D81AE108F108CC0FB09B0AC0A89531E0D8
:10170000C31634E0D306E104F10418F7B601E3CFC1
:10171000CF5FC13099F7809198018111FCCF80E8AB
:101720008EBD8BBDC59AA895FECFC150CEBDCBBD99
:1017300084E690E09CD4C111F8CF10BE1CBC01BD62
:1017400085B7877E806185BF85B7806285BF8895B4
:1017500085B78F7D85BFA89511BD18CEA1E21A2E41
:10176000AA1BBB1BFD010DC0AA1FBB1FEE1FFF1F45
:10177000A217B307E407F50720F0A21BB30BE40B95
:10178000F50B661F771F881F991F1A9469F76095DC
:101790007095809590959B01AC01BD01CF01089596
:1017A00068940010E894A0E0B0E0E8EDFBE01DC014
:1017B000EFEFE7F959016A015E23550FEE08FE2CA1
:1017C00087019B01AC019E23990F660B762FCB01FD
:1017D0003BD0CDB7DEB7EAE024C02F923F924F92C4
:1017E0005F926F927F928F929F92AF92BF92CF92B1
:1017F000DF92EF92FF920F931F93CF93DF93CDB7BA
:10180000DEB7CA1BDB0B0FB6F894DEBF0FBECDBF31
:1018100009942A88398848885F846E847D848C8402
:101820009B84AA84B984C884DF80EE80FD800C810B
:101830001B81AA81B981CE0FD11D0FB6F894DEBFEE
:101840000FBECDBFED010895DF93CF939F92A0E42B
:101850009A2E0024D001E001F00116950795F79427
:10186000E794D794C794B794A79448F41068A20F4C
:10187000B31FC41FD51FE61FF71F081E191E220F16
:10188000331F441F551F661F771F881F991F9A9487
:1018900021F79D01AE01BF01C00111249F90CF919E
:1018A000DF910895FB0151915523A9F0BF01DC019F
:1018B0004D9145174111E1F759F4CD0101900020F8
:1018C00049F04D9140154111C9F3FB014111EFCF92
:0C18D00081E090E001970895F894FFCFAC
:0A18DC00776176002E574156000098
:00000001FF
